{
  "_format": "hh-sol-artifact-1",
  "contractName": "NFT",
  "sourceName": "contracts/NFT.sol",
  "abi": [
    {
      "inputs": [
        {
          "internalType": "address",
          "name": "marketplaceAddress",
          "type": "address"
        }
      ],
      "stateMutability": "nonpayable",
      "type": "constructor"
    },
    {
      "anonymous": false,
      "inputs": [
        {
          "indexed": true,
          "internalType": "address",
          "name": "owner",
          "type": "address"
        },
        {
          "indexed": true,
          "internalType": "address",
          "name": "approved",
          "type": "address"
        },
        {
          "indexed": true,
          "internalType": "uint256",
          "name": "tokenId",
          "type": "uint256"
        }
      ],
      "name": "Approval",
      "type": "event"
    },
    {
      "anonymous": false,
      "inputs": [
        {
          "indexed": true,
          "internalType": "address",
          "name": "owner",
          "type": "address"
        },
        {
          "indexed": true,
          "internalType": "address",
          "name": "operator",
          "type": "address"
        },
        {
          "indexed": false,
          "internalType": "bool",
          "name": "approved",
          "type": "bool"
        }
      ],
      "name": "ApprovalForAll",
      "type": "event"
    },
    {
      "anonymous": false,
      "inputs": [
        {
          "indexed": true,
          "internalType": "address",
          "name": "from",
          "type": "address"
        },
        {
          "indexed": true,
          "internalType": "address",
          "name": "to",
          "type": "address"
        },
        {
          "indexed": true,
          "internalType": "uint256",
          "name": "tokenId",
          "type": "uint256"
        }
      ],
      "name": "Transfer",
      "type": "event"
    },
    {
      "inputs": [
        {
          "internalType": "address",
          "name": "to",
          "type": "address"
        },
        {
          "internalType": "uint256",
          "name": "tokenId",
          "type": "uint256"
        }
      ],
      "name": "approve",
      "outputs": [],
      "stateMutability": "nonpayable",
      "type": "function"
    },
    {
      "inputs": [
        {
          "internalType": "address",
          "name": "owner",
          "type": "address"
        }
      ],
      "name": "balanceOf",
      "outputs": [
        {
          "internalType": "uint256",
          "name": "",
          "type": "uint256"
        }
      ],
      "stateMutability": "view",
      "type": "function"
    },
    {
      "inputs": [
        {
          "internalType": "uint256",
          "name": "tokenId",
          "type": "uint256"
        }
      ],
      "name": "getApproved",
      "outputs": [
        {
          "internalType": "address",
          "name": "",
          "type": "address"
        }
      ],
      "stateMutability": "view",
      "type": "function"
    },
    {
      "inputs": [
        {
          "internalType": "address",
          "name": "owner",
          "type": "address"
        },
        {
          "internalType": "address",
          "name": "operator",
          "type": "address"
        }
      ],
      "name": "isApprovedForAll",
      "outputs": [
        {
          "internalType": "bool",
          "name": "",
          "type": "bool"
        }
      ],
      "stateMutability": "view",
      "type": "function"
    },
    {
      "inputs": [
        {
          "internalType": "string",
          "name": "tokenURI",
          "type": "string"
        }
      ],
      "name": "mintToken",
      "outputs": [
        {
          "internalType": "uint256",
          "name": "",
          "type": "uint256"
        }
      ],
      "stateMutability": "nonpayable",
      "type": "function"
    },
    {
      "inputs": [],
      "name": "name",
      "outputs": [
        {
          "internalType": "string",
          "name": "",
          "type": "string"
        }
      ],
      "stateMutability": "view",
      "type": "function"
    },
    {
      "inputs": [
        {
          "internalType": "uint256",
          "name": "tokenId",
          "type": "uint256"
        }
      ],
      "name": "ownerOf",
      "outputs": [
        {
          "internalType": "address",
          "name": "",
          "type": "address"
        }
      ],
      "stateMutability": "view",
      "type": "function"
    },
    {
      "inputs": [
        {
          "internalType": "address",
          "name": "from",
          "type": "address"
        },
        {
          "internalType": "address",
          "name": "to",
          "type": "address"
        },
        {
          "internalType": "uint256",
          "name": "tokenId",
          "type": "uint256"
        }
      ],
      "name": "safeTransferFrom",
      "outputs": [],
      "stateMutability": "nonpayable",
      "type": "function"
    },
    {
      "inputs": [
        {
          "internalType": "address",
          "name": "from",
          "type": "address"
        },
        {
          "internalType": "address",
          "name": "to",
          "type": "address"
        },
        {
          "internalType": "uint256",
          "name": "tokenId",
          "type": "uint256"
        },
        {
          "internalType": "bytes",
          "name": "_data",
          "type": "bytes"
        }
      ],
      "name": "safeTransferFrom",
      "outputs": [],
      "stateMutability": "nonpayable",
      "type": "function"
    },
    {
      "inputs": [
        {
          "internalType": "address",
          "name": "operator",
          "type": "address"
        },
        {
          "internalType": "bool",
          "name": "approved",
          "type": "bool"
        }
      ],
      "name": "setApprovalForAll",
      "outputs": [],
      "stateMutability": "nonpayable",
      "type": "function"
    },
    {
      "inputs": [
        {
          "internalType": "bytes4",
          "name": "interfaceId",
          "type": "bytes4"
        }
      ],
      "name": "supportsInterface",
      "outputs": [
        {
          "internalType": "bool",
          "name": "",
          "type": "bool"
        }
      ],
      "stateMutability": "view",
      "type": "function"
    },
    {
      "inputs": [],
      "name": "symbol",
      "outputs": [
        {
          "internalType": "string",
          "name": "",
          "type": "string"
        }
      ],
      "stateMutability": "view",
      "type": "function"
    },
    {
      "inputs": [
        {
          "internalType": "uint256",
          "name": "tokenId",
          "type": "uint256"
        }
      ],
      "name": "tokenURI",
      "outputs": [
        {
          "internalType": "string",
          "name": "",
          "type": "string"
        }
      ],
      "stateMutability": "view",
      "type": "function"
    },
    {
      "inputs": [
        {
          "internalType": "address",
          "name": "from",
          "type": "address"
        },
        {
          "internalType": "address",
          "name": "to",
          "type": "address"
        },
        {
          "internalType": "uint256",
          "name": "tokenId",
          "type": "uint256"
        }
      ],
      "name": "transferFrom",
      "outputs": [],
      "stateMutability": "nonpayable",
      "type": "function"
    }
  ],
  "bytecode": "0x60806040523480156200001157600080fd5b5060405162001c0038038062001c00833981016040819052620000349162000165565b6040805180820182526008815267426967204369747960c01b6020808301918252835180850190945260038452621091d560ea1b9084015281519192916200007f91600091620000bf565b50805162000095906001906020840190620000bf565b5050600880546001600160a01b0319166001600160a01b03939093169290921790915550620001d2565b828054620000cd9062000195565b90600052602060002090601f016020900481019282620000f157600085556200013c565b82601f106200010c57805160ff19168380011785556200013c565b828001600101855582156200013c579182015b828111156200013c5782518255916020019190600101906200011f565b506200014a9291506200014e565b5090565b5b808211156200014a57600081556001016200014f565b60006020828403121562000177578081fd5b81516001600160a01b03811681146200018e578182fd5b9392505050565b600181811c90821680620001aa57607f821691505b60208210811415620001cc57634e487b7160e01b600052602260045260246000fd5b50919050565b611a1e80620001e26000396000f3fe608060405234801561001057600080fd5b50600436106100ea5760003560e01c80636352211e1161008c578063a22cb46511610066578063a22cb465146101e1578063b88d4fde146101f4578063c87b56dd14610207578063e985e9c51461021a57600080fd5b80636352211e146101b357806370a08231146101c657806395d89b41146101d957600080fd5b8063095ea7b3116100c8578063095ea7b31461015757806323b872dd1461016c57806333eba49a1461017f57806342842e0e146101a057600080fd5b806301ffc9a7146100ef57806306fdde0314610117578063081812fc1461012c575b600080fd5b6101026100fd36600461173e565b610256565b60405190151581526020015b60405180910390f35b61011f61033b565b60405161010e919061186b565b61013f61013a3660046117bc565b6103cd565b6040516001600160a01b03909116815260200161010e565b61016a610165366004611715565b610478565b005b61016a61017a366004611627565b6105aa565b61019261018d366004611776565b610631565b60405190815260200161010e565b61016a6101ae366004611627565b610679565b61013f6101c13660046117bc565b610694565b6101926101d43660046115db565b61071f565b61011f6107b9565b61016a6101ef3660046116db565b6107c8565b61016a610202366004611662565b6107d7565b61011f6102153660046117bc565b610865565b6101026102283660046115f5565b6001600160a01b03918216600090815260056020908152604080832093909416825291909152205460ff1690565b60007fffffffff0000000000000000000000000000000000000000000000000000000082167f80ac58cd0000000000000000000000000000000000000000000000000000000014806102e957507fffffffff0000000000000000000000000000000000000000000000000000000082167f5b5e139f00000000000000000000000000000000000000000000000000000000145b8061033557507f01ffc9a7000000000000000000000000000000000000000000000000000000007fffffffff000000000000000000000000000000000000000000000000000000008316145b92915050565b60606000805461034a906118ed565b80601f0160208091040260200160405190810160405280929190818152602001828054610376906118ed565b80156103c35780601f10610398576101008083540402835291602001916103c3565b820191906000526020600020905b8154815290600101906020018083116103a657829003601f168201915b5050505050905090565b6000818152600260205260408120546001600160a01b031661045c5760405162461bcd60e51b815260206004820152602c60248201527f4552433732313a20617070726f76656420717565727920666f72206e6f6e657860448201527f697374656e7420746f6b656e000000000000000000000000000000000000000060648201526084015b60405180910390fd5b506000908152600460205260409020546001600160a01b031690565b600061048382610694565b9050806001600160a01b0316836001600160a01b0316141561050d5760405162461bcd60e51b815260206004820152602160248201527f4552433732313a20617070726f76616c20746f2063757272656e74206f776e6560448201527f72000000000000000000000000000000000000000000000000000000000000006064820152608401610453565b336001600160a01b038216148061052957506105298133610228565b61059b5760405162461bcd60e51b815260206004820152603860248201527f4552433732313a20617070726f76652063616c6c6572206973206e6f74206f7760448201527f6e6572206e6f7220617070726f76656420666f7220616c6c00000000000000006064820152608401610453565b6105a583836109f8565b505050565b6105b43382610a73565b6106265760405162461bcd60e51b815260206004820152603160248201527f4552433732313a207472616e736665722063616c6c6572206973206e6f74206f60448201527f776e6572206e6f7220617070726f7665640000000000000000000000000000006064820152608401610453565b6105a5838383610b77565b6000610641600780546001019055565b600061064c60075490565b90506106583382610d51565b6106628184610ea0565b600854610335906001600160a01b031660016107c8565b6105a5838383604051806020016040528060008152506107d7565b6000818152600260205260408120546001600160a01b0316806103355760405162461bcd60e51b815260206004820152602960248201527f4552433732313a206f776e657220717565727920666f72206e6f6e657869737460448201527f656e7420746f6b656e00000000000000000000000000000000000000000000006064820152608401610453565b60006001600160a01b03821661079d5760405162461bcd60e51b815260206004820152602a60248201527f4552433732313a2062616c616e636520717565727920666f7220746865207a6560448201527f726f2061646472657373000000000000000000000000000000000000000000006064820152608401610453565b506001600160a01b031660009081526003602052604090205490565b60606001805461034a906118ed565b6107d3338383610f49565b5050565b6107e13383610a73565b6108535760405162461bcd60e51b815260206004820152603160248201527f4552433732313a207472616e736665722063616c6c6572206973206e6f74206f60448201527f776e6572206e6f7220617070726f7665640000000000000000000000000000006064820152608401610453565b61085f84848484611036565b50505050565b6000818152600260205260409020546060906001600160a01b03166108f25760405162461bcd60e51b815260206004820152603160248201527f45524337323155524953746f726167653a2055524920717565727920666f722060448201527f6e6f6e6578697374656e7420746f6b656e0000000000000000000000000000006064820152608401610453565b6000828152600660205260408120805461090b906118ed565b80601f0160208091040260200160405190810160405280929190818152602001828054610937906118ed565b80156109845780601f1061095957610100808354040283529160200191610984565b820191906000526020600020905b81548152906001019060200180831161096757829003601f168201915b5050505050905060006109a260408051602081019091526000815290565b90508051600014156109b5575092915050565b8151156109e75780826040516020016109cf929190611800565b60405160208183030381529060405292505050919050565b6109f0846110bf565b949350505050565b6000818152600460205260409020805473ffffffffffffffffffffffffffffffffffffffff19166001600160a01b0384169081179091558190610a3a82610694565b6001600160a01b03167f8c5be1e5ebec7d5bd14f71427d1e84f3dd0314c0f7b2291e5b200ac8c7c3b92560405160405180910390a45050565b6000818152600260205260408120546001600160a01b0316610afd5760405162461bcd60e51b815260206004820152602c60248201527f4552433732313a206f70657261746f7220717565727920666f72206e6f6e657860448201527f697374656e7420746f6b656e00000000000000000000000000000000000000006064820152608401610453565b6000610b0883610694565b9050806001600160a01b0316846001600160a01b03161480610b435750836001600160a01b0316610b38846103cd565b6001600160a01b0316145b806109f057506001600160a01b0380821660009081526005602090815260408083209388168352929052205460ff166109f0565b826001600160a01b0316610b8a82610694565b6001600160a01b031614610c065760405162461bcd60e51b815260206004820152602960248201527f4552433732313a207472616e73666572206f6620746f6b656e2074686174206960448201527f73206e6f74206f776e00000000000000000000000000000000000000000000006064820152608401610453565b6001600160a01b038216610c815760405162461bcd60e51b8152602060048201526024808201527f4552433732313a207472616e7366657220746f20746865207a65726f2061646460448201527f72657373000000000000000000000000000000000000000000000000000000006064820152608401610453565b610c8c6000826109f8565b6001600160a01b0383166000908152600360205260408120805460019290610cb59084906118aa565b90915550506001600160a01b0382166000908152600360205260408120805460019290610ce390849061187e565b9091555050600081815260026020526040808220805473ffffffffffffffffffffffffffffffffffffffff19166001600160a01b0386811691821790925591518493918716917fddf252ad1be2c89b69c2b068fc378daa952ba7f163c4a11628f55a4df523b3ef91a4505050565b6001600160a01b038216610da75760405162461bcd60e51b815260206004820181905260248201527f4552433732313a206d696e7420746f20746865207a65726f20616464726573736044820152606401610453565b6000818152600260205260409020546001600160a01b031615610e0c5760405162461bcd60e51b815260206004820152601c60248201527f4552433732313a20746f6b656e20616c7265616479206d696e746564000000006044820152606401610453565b6001600160a01b0382166000908152600360205260408120805460019290610e3590849061187e565b9091555050600081815260026020526040808220805473ffffffffffffffffffffffffffffffffffffffff19166001600160a01b03861690811790915590518392907fddf252ad1be2c89b69c2b068fc378daa952ba7f163c4a11628f55a4df523b3ef908290a45050565b6000828152600260205260409020546001600160a01b0316610f2a5760405162461bcd60e51b815260206004820152602e60248201527f45524337323155524953746f726167653a2055524920736574206f66206e6f6e60448201527f6578697374656e7420746f6b656e0000000000000000000000000000000000006064820152608401610453565b600082815260066020908152604090912082516105a5928401906114b0565b816001600160a01b0316836001600160a01b03161415610fab5760405162461bcd60e51b815260206004820152601960248201527f4552433732313a20617070726f766520746f2063616c6c6572000000000000006044820152606401610453565b6001600160a01b0383811660008181526005602090815260408083209487168084529482529182902080547fffffffffffffffffffffffffffffffffffffffffffffffffffffffffffffff001686151590811790915591519182527f17307eab39ab6107e8899845ad3d59bd9653f200f220920489ca2b5937696c31910160405180910390a3505050565b611041848484610b77565b61104d848484846111b5565b61085f5760405162461bcd60e51b815260206004820152603260248201527f4552433732313a207472616e7366657220746f206e6f6e20455243373231526560448201527f63656976657220696d706c656d656e74657200000000000000000000000000006064820152608401610453565b6000818152600260205260409020546060906001600160a01b031661114c5760405162461bcd60e51b815260206004820152602f60248201527f4552433732314d657461646174613a2055524920717565727920666f72206e6f60448201527f6e6578697374656e7420746f6b656e00000000000000000000000000000000006064820152608401610453565b600061116360408051602081019091526000815290565b9050600081511161118357604051806020016040528060008152506111ae565b8061118d84611362565b60405160200161119e929190611800565b6040516020818303038152906040525b9392505050565b60006001600160a01b0384163b15611357576040517f150b7a020000000000000000000000000000000000000000000000000000000081526001600160a01b0385169063150b7a029061121290339089908890889060040161182f565b602060405180830381600087803b15801561122c57600080fd5b505af192505050801561125c575060408051601f3d908101601f191682019092526112599181019061175a565b60015b61130c573d80801561128a576040519150601f19603f3d011682016040523d82523d6000602084013e61128f565b606091505b5080516113045760405162461bcd60e51b815260206004820152603260248201527f4552433732313a207472616e7366657220746f206e6f6e20455243373231526560448201527f63656976657220696d706c656d656e74657200000000000000000000000000006064820152608401610453565b805181602001fd5b7fffffffff00000000000000000000000000000000000000000000000000000000167f150b7a02000000000000000000000000000000000000000000000000000000001490506109f0565b506001949350505050565b6060816113a257505060408051808201909152600181527f3000000000000000000000000000000000000000000000000000000000000000602082015290565b8160005b81156113cc57806113b681611928565b91506113c59050600a83611896565b91506113a6565b60008167ffffffffffffffff8111156113f557634e487b7160e01b600052604160045260246000fd5b6040519080825280601f01601f19166020018201604052801561141f576020820181803683370190505b5090505b84156109f0576114346001836118aa565b9150611441600a86611961565b61144c90603061187e565b60f81b81838151811061146f57634e487b7160e01b600052603260045260246000fd5b60200101907effffffffffffffffffffffffffffffffffffffffffffffffffffffffffffff1916908160001a9053506114a9600a86611896565b9450611423565b8280546114bc906118ed565b90600052602060002090601f0160209004810192826114de5760008555611524565b82601f106114f757805160ff1916838001178555611524565b82800160010185558215611524579182015b82811115611524578251825591602001919060010190611509565b50611530929150611534565b5090565b5b808211156115305760008155600101611535565b600067ffffffffffffffff80841115611564576115646119a1565b604051601f8501601f19908116603f0116810190828211818310171561158c5761158c6119a1565b816040528093508581528686860111156115a557600080fd5b858560208301376000602087830101525050509392505050565b80356001600160a01b03811681146115d657600080fd5b919050565b6000602082840312156115ec578081fd5b6111ae826115bf565b60008060408385031215611607578081fd5b611610836115bf565b915061161e602084016115bf565b90509250929050565b60008060006060848603121561163b578081fd5b611644846115bf565b9250611652602085016115bf565b9150604084013590509250925092565b60008060008060808587031215611677578081fd5b611680856115bf565b935061168e602086016115bf565b925060408501359150606085013567ffffffffffffffff8111156116b0578182fd5b8501601f810187136116c0578182fd5b6116cf87823560208401611549565b91505092959194509250565b600080604083850312156116ed578182fd5b6116f6836115bf565b91506020830135801515811461170a578182fd5b809150509250929050565b60008060408385031215611727578182fd5b611730836115bf565b946020939093013593505050565b60006020828403121561174f578081fd5b81356111ae816119b7565b60006020828403121561176b578081fd5b81516111ae816119b7565b600060208284031215611787578081fd5b813567ffffffffffffffff81111561179d578182fd5b8201601f810184136117ad578182fd5b6109f084823560208401611549565b6000602082840312156117cd578081fd5b5035919050565b600081518084526117ec8160208601602086016118c1565b601f01601f19169290920160200192915050565b600083516118128184602088016118c1565b8351908301906118268183602088016118c1565b01949350505050565b60006001600160a01b0380871683528086166020840152508360408301526080606083015261186160808301846117d4565b9695505050505050565b6020815260006111ae60208301846117d4565b6000821982111561189157611891611975565b500190565b6000826118a5576118a561198b565b500490565b6000828210156118bc576118bc611975565b500390565b60005b838110156118dc5781810151838201526020016118c4565b8381111561085f5750506000910152565b600181811c9082168061190157607f821691505b6020821081141561192257634e487b7160e01b600052602260045260246000fd5b50919050565b60007fffffffffffffffffffffffffffffffffffffffffffffffffffffffffffffffff82141561195a5761195a611975565b5060010190565b6000826119705761197061198b565b500690565b634e487b7160e01b600052601160045260246000fd5b634e487b7160e01b600052601260045260246000fd5b634e487b7160e01b600052604160045260246000fd5b7fffffffff00000000000000000000000000000000000000000000000000000000811681146119e557600080fd5b5056fea2646970667358221220e483338c5b269578d8ab9bf756df706ba1b9fcf9ebfb214522fcea40973b974564736f6c63430008040033",
  "linkReferences": {},
  "deployedLinkReferences": {}
}