{
  "_format": "hh-sol-artifact-1",
  "contractName": "BG_NFTMarket",
  "sourceName": "contracts/BG_NFTMarket.sol",
  "abi": [
    {
      "inputs": [],
      "stateMutability": "nonpayable",
      "type": "constructor"
    },
    {
      "anonymous": false,
      "inputs": [
        {
          "indexed": true,
          "internalType": "uint256",
          "name": "itemId",
          "type": "uint256"
        },
        {
          "indexed": true,
          "internalType": "address",
          "name": "nftContract",
          "type": "address"
        },
        {
          "indexed": true,
          "internalType": "uint256",
          "name": "tokenId",
          "type": "uint256"
        },
        {
          "indexed": false,
          "internalType": "address",
          "name": "seller",
          "type": "address"
        },
        {
          "indexed": false,
          "internalType": "address",
          "name": "buyer",
          "type": "address"
        },
        {
          "indexed": false,
          "internalType": "uint256",
          "name": "price",
          "type": "uint256"
        },
        {
          "indexed": false,
          "internalType": "bool",
          "name": "sold",
          "type": "bool"
        }
      ],
      "name": "MarketTokenMinted",
      "type": "event"
    },
    {
      "inputs": [
        {
          "internalType": "address",
          "name": "nftContract",
          "type": "address"
        },
        {
          "internalType": "uint256",
          "name": "itemId",
          "type": "uint256"
        }
      ],
      "name": "createMarketSale",
      "outputs": [],
      "stateMutability": "payable",
      "type": "function"
    },
    {
      "inputs": [],
      "name": "fetchItemCreated",
      "outputs": [
        {
          "components": [
            {
              "internalType": "uint256",
              "name": "tokenId",
              "type": "uint256"
            },
            {
              "internalType": "address",
              "name": "nftContract",
              "type": "address"
            },
            {
              "internalType": "uint256",
              "name": "itemId",
              "type": "uint256"
            },
            {
              "internalType": "address payable",
              "name": "seller",
              "type": "address"
            },
            {
              "internalType": "address payable",
              "name": "owner",
              "type": "address"
            },
            {
              "internalType": "uint256",
              "name": "price",
              "type": "uint256"
            },
            {
              "internalType": "bool",
              "name": "sold",
              "type": "bool"
            }
          ],
          "internalType": "struct BG_NFTMarket.MarketToken[]",
          "name": "",
          "type": "tuple[]"
        }
      ],
      "stateMutability": "view",
      "type": "function"
    },
    {
      "inputs": [],
      "name": "fetchMarketTokens",
      "outputs": [
        {
          "components": [
            {
              "internalType": "uint256",
              "name": "tokenId",
              "type": "uint256"
            },
            {
              "internalType": "address",
              "name": "nftContract",
              "type": "address"
            },
            {
              "internalType": "uint256",
              "name": "itemId",
              "type": "uint256"
            },
            {
              "internalType": "address payable",
              "name": "seller",
              "type": "address"
            },
            {
              "internalType": "address payable",
              "name": "owner",
              "type": "address"
            },
            {
              "internalType": "uint256",
              "name": "price",
              "type": "uint256"
            },
            {
              "internalType": "bool",
              "name": "sold",
              "type": "bool"
            }
          ],
          "internalType": "struct BG_NFTMarket.MarketToken[]",
          "name": "",
          "type": "tuple[]"
        }
      ],
      "stateMutability": "view",
      "type": "function"
    },
    {
      "inputs": [],
      "name": "fetchMyNFTs",
      "outputs": [
        {
          "components": [
            {
              "internalType": "uint256",
              "name": "tokenId",
              "type": "uint256"
            },
            {
              "internalType": "address",
              "name": "nftContract",
              "type": "address"
            },
            {
              "internalType": "uint256",
              "name": "itemId",
              "type": "uint256"
            },
            {
              "internalType": "address payable",
              "name": "seller",
              "type": "address"
            },
            {
              "internalType": "address payable",
              "name": "owner",
              "type": "address"
            },
            {
              "internalType": "uint256",
              "name": "price",
              "type": "uint256"
            },
            {
              "internalType": "bool",
              "name": "sold",
              "type": "bool"
            }
          ],
          "internalType": "struct BG_NFTMarket.MarketToken[]",
          "name": "",
          "type": "tuple[]"
        }
      ],
      "stateMutability": "view",
      "type": "function"
    },
    {
      "inputs": [],
      "name": "getListingPrice",
      "outputs": [
        {
          "internalType": "uint256",
          "name": "",
          "type": "uint256"
        }
      ],
      "stateMutability": "view",
      "type": "function"
    },
    {
      "inputs": [
        {
          "internalType": "address",
          "name": "nftContract",
          "type": "address"
        },
        {
          "internalType": "uint256",
          "name": "tokenId",
          "type": "uint256"
        },
        {
          "internalType": "uint256",
          "name": "price",
          "type": "uint256"
        }
      ],
      "name": "makeMarketItem",
      "outputs": [],
      "stateMutability": "payable",
      "type": "function"
    }
  ],
  "bytecode": "0x608060405267063eb89da4ed000060045534801561001c57600080fd5b506001600055600380546001600160a01b03191633179055610e19806100436000396000f3fe6080604052600436106100655760003560e01c80637a060f56116100435780637a060f56146100c4578063c23b139e146100d9578063c69bdf75146100ec57600080fd5b806312e855851461006a578063202e37401461008d5780636d360339146100af575b600080fd5b34801561007657600080fd5b506004546040519081526020015b60405180910390f35b34801561009957600080fd5b506100a2610101565b6040516100849190610cef565b3480156100bb57600080fd5b506100a2610329565b6100d76100d2366004610cbd565b610548565b005b6100d76100e7366004610c94565b610859565b3480156100f857600080fd5b506100a2610aa3565b6060600061010e60015490565b905060008060005b8381101561017157336005600061012e846001610d83565b81526020810191909152604001600020600401546001600160a01b0316141561015f5761015c600184610d83565b92505b8061016981610db2565b915050610116565b5060008267ffffffffffffffff81111561019b57634e487b7160e01b600052604160045260246000fd5b60405190808252806020026020018201604052801561020257816020015b6040805160e08101825260008082526020808301829052928201819052606082018190526080820181905260a0820181905260c082015282526000199092019101816101b95790505b50905060015b84811015610320573360056000610220846001610d83565b81526020810191909152604001600020600401546001600160a01b0316141561030e576000600581610253846001610d83565b815260208082019290925260409081016000908120600290810154808352600580865292849020845160e0810186528154815260018201546001600160a01b03908116978201979097529281015494830194909452600384015485166060830152600484015490941660808201529082015460a0820152600682015460ff16151560c08201528551929350909185908790811061030057634e487b7160e01b600052603260045260246000fd5b602002602001018190525050505b8061031881610db2565b915050610208565b50949350505050565b6060600061033660015490565b905060008060005b83811015610399573360056000610356846001610d83565b81526020810191909152604001600020600301546001600160a01b0316141561038757610384600184610d9b565b92505b8061039181610db2565b91505061033e565b5060008267ffffffffffffffff8111156103c357634e487b7160e01b600052604160045260246000fd5b60405190808252806020026020018201604052801561042a57816020015b6040805160e08101825260008082526020808301829052928201819052606082018190526080820181905260a0820181905260c082015282526000199092019101816103e15790505b50905060015b84811015610320573360056000610448846001610d83565b81526020810191909152604001600020600301546001600160a01b0316141561053657600060058161047b846001610d83565b815260208082019290925260409081016000908120600290810154808352600580865292849020845160e0810186528154815260018201546001600160a01b03908116978201979097529281015494830194909452600384015485166060830152600484015490941660808201529082015460a0820152600682015460ff16151560c08201528551929350909185908790811061052857634e487b7160e01b600052603260045260246000fd5b602002602001018190525050505b8061054081610db2565b915050610430565b600260005414156105a05760405162461bcd60e51b815260206004820152601f60248201527f5265656e7472616e637947756172643a207265656e7472616e742063616c6c0060448201526064015b60405180910390fd5b6002600055806106185760405162461bcd60e51b815260206004820152602360248201527f5072696365206d7573742062652067726561746572207468616e206f6e65207760448201527f65692e00000000000000000000000000000000000000000000000000000000006064820152608401610597565b600454341461068f5760405162461bcd60e51b815260206004820152602560248201527f5072696365206d75737420626520657175616c20746f206c697374696e67207060448201527f726963652e0000000000000000000000000000000000000000000000000000006064820152608401610597565b61069d600180546001019055565b60006106a860015490565b6040805160e0810182528281526001600160a01b0387811660208084018281528486018a8152336060870181815260006080890181815260a08a018e815260c08b018381528d8452600598899052928c90209a518b55955160018b018054918b167fffffffffffffffffffffffff0000000000000000000000000000000000000000928316179055945160028b0155915160038a018054918a1691861691909117905590516004808a01805492909916919094161790965591519286019290925592516006909401805494151560ff199095169490941790935592517f23b872dd0000000000000000000000000000000000000000000000000000000081529182015230602482015260448101869052919250906323b872dd90606401600060405180830381600087803b1580156107df57600080fd5b505af11580156107f3573d6000803e3d6000fd5b505060408051338152600060208201819052818301879052606082015290518693506001600160a01b038816925084917fcd9b0dfebab7db4dbe70606f69fadc8e987e7c80a65410f0bb5ae8bd72dabba7919081900360800190a4505060016000555050565b600260005414156108ac5760405162461bcd60e51b815260206004820152601f60248201527f5265656e7472616e637947756172643a207265656e7472616e742063616c6c006044820152606401610597565b6002600090815581815260056020819052604090912090810154905434821461093d5760405162461bcd60e51b815260206004820152602b60248201527f506c65617365207375626d6974207468652061736b696e67207072696365207460448201527f6f20636f6e74696e75652e0000000000000000000000000000000000000000006064820152608401610597565b6000838152600560205260408082206003015490516001600160a01b03909116913480156108fc02929091818181858888f19350505050158015610985573d6000803e3d6000fd5b506040517f23b872dd000000000000000000000000000000000000000000000000000000008152306004820152336024820152604481018290526001600160a01b038516906323b872dd90606401600060405180830381600087803b1580156109ed57600080fd5b505af1158015610a01573d6000803e3d6000fd5b50505060008481526005602052604090206004810180547fffffffffffffffffffffffff00000000000000000000000000000000000000001633179055600601805460ff1916600117905550610a5b600280546001019055565b6003546004546040516001600160a01b039092169181156108fc0291906000818181858888f19350505050158015610a97573d6000803e3d6000fd5b50506001600055505050565b60606000610ab060025490565b600154610abd9190610d9b565b90506000610aca60025490565b600154610ad79190610d9b565b90506000808267ffffffffffffffff811115610b0357634e487b7160e01b600052604160045260246000fd5b604051908082528060200260200182016040528015610b6a57816020015b6040805160e08101825260008082526020808301829052928201819052606082018190526080820181905260a0820181905260c08201528252600019909201910181610b215790505b50905060008415610c70576000600581610b85846001610d83565b81526020810191909152604001600020600401546001600160a01b03161415610320576000610bb5826001610d83565b600081815260056020818152604092839020835160e0810185528154815260018201546001600160a01b0390811693820193909352600282015494810194909452600381015482166060850152600481015490911660808401529081015460a0830152600681015460ff16151560c0830152855192935091859087908110610c4d57634e487b7160e01b600052603260045260246000fd5b6020908102919091010152610c63600186610d83565b9450505050949350505050565b505050505090565b80356001600160a01b0381168114610c8f57600080fd5b919050565b60008060408385031215610ca6578182fd5b610caf83610c78565b946020939093013593505050565b600080600060608486031215610cd1578081fd5b610cda84610c78565b95602085013595506040909401359392505050565b602080825282518282018190526000919060409081850190868401855b82811015610d7657815180518552868101516001600160a01b039081168887015286820151878701526060808301518216908701526080808301519091169086015260a0808201519086015260c09081015115159085015260e09093019290850190600101610d0c565b5091979650505050505050565b60008219821115610d9657610d96610dcd565b500190565b600082821015610dad57610dad610dcd565b500390565b6000600019821415610dc657610dc6610dcd565b5060010190565b634e487b7160e01b600052601160045260246000fdfea2646970667358221220aa7f60fbd7efc016db78f426ce47c2cea44f73534fd3ce4e94ddee3d093b45b264736f6c63430008040033",
  "linkReferences": {},
  "deployedLinkReferences": {}
}